{
  "_format": "hh-sol-artifact-1",
  "contractName": "NFT",
  "sourceName": "contracts/NFT.sol",
  "abi": [
    {
      "inputs": [],
      "stateMutability": "nonpayable",
      "type": "constructor"
    },
    {
      "anonymous": false,
      "inputs": [
        {
          "indexed": true,
          "internalType": "address",
          "name": "owner",
          "type": "address"
        },
        {
          "indexed": true,
          "internalType": "address",
          "name": "approved",
          "type": "address"
        },
        {
          "indexed": true,
          "internalType": "uint256",
          "name": "tokenId",
          "type": "uint256"
        }
      ],
      "name": "Approval",
      "type": "event"
    },
    {
      "anonymous": false,
      "inputs": [
        {
          "indexed": true,
          "internalType": "address",
          "name": "owner",
          "type": "address"
        },
        {
          "indexed": true,
          "internalType": "address",
          "name": "operator",
          "type": "address"
        },
        {
          "indexed": false,
          "internalType": "bool",
          "name": "approved",
          "type": "bool"
        }
      ],
      "name": "ApprovalForAll",
      "type": "event"
    },
    {
      "anonymous": false,
      "inputs": [
        {
          "indexed": true,
          "internalType": "address",
          "name": "from",
          "type": "address"
        },
        {
          "indexed": true,
          "internalType": "address",
          "name": "to",
          "type": "address"
        },
        {
          "indexed": true,
          "internalType": "uint256",
          "name": "tokenId",
          "type": "uint256"
        }
      ],
      "name": "Transfer",
      "type": "event"
    },
    {
      "inputs": [
        {
          "internalType": "address",
          "name": "to",
          "type": "address"
        },
        {
          "internalType": "uint256",
          "name": "tokenId",
          "type": "uint256"
        }
      ],
      "name": "approve",
      "outputs": [],
      "stateMutability": "nonpayable",
      "type": "function"
    },
    {
      "inputs": [
        {
          "internalType": "address",
          "name": "owner",
          "type": "address"
        }
      ],
      "name": "balanceOf",
      "outputs": [
        {
          "internalType": "uint256",
          "name": "",
          "type": "uint256"
        }
      ],
      "stateMutability": "view",
      "type": "function"
    },
    {
      "inputs": [
        {
          "internalType": "uint256",
          "name": "tokenId",
          "type": "uint256"
        }
      ],
      "name": "getApproved",
      "outputs": [
        {
          "internalType": "address",
          "name": "",
          "type": "address"
        }
      ],
      "stateMutability": "view",
      "type": "function"
    },
    {
      "inputs": [
        {
          "internalType": "address",
          "name": "owner",
          "type": "address"
        },
        {
          "internalType": "address",
          "name": "operator",
          "type": "address"
        }
      ],
      "name": "isApprovedForAll",
      "outputs": [
        {
          "internalType": "bool",
          "name": "",
          "type": "bool"
        }
      ],
      "stateMutability": "view",
      "type": "function"
    },
    {
      "inputs": [
        {
          "internalType": "string",
          "name": "_tokenURI",
          "type": "string"
        }
      ],
      "name": "mint",
      "outputs": [
        {
          "internalType": "uint256",
          "name": "",
          "type": "uint256"
        }
      ],
      "stateMutability": "nonpayable",
      "type": "function"
    },
    {
      "inputs": [],
      "name": "name",
      "outputs": [
        {
          "internalType": "string",
          "name": "",
          "type": "string"
        }
      ],
      "stateMutability": "view",
      "type": "function"
    },
    {
      "inputs": [
        {
          "internalType": "uint256",
          "name": "tokenId",
          "type": "uint256"
        }
      ],
      "name": "ownerOf",
      "outputs": [
        {
          "internalType": "address",
          "name": "",
          "type": "address"
        }
      ],
      "stateMutability": "view",
      "type": "function"
    },
    {
      "inputs": [
        {
          "internalType": "address",
          "name": "from",
          "type": "address"
        },
        {
          "internalType": "address",
          "name": "to",
          "type": "address"
        },
        {
          "internalType": "uint256",
          "name": "tokenId",
          "type": "uint256"
        }
      ],
      "name": "safeTransferFrom",
      "outputs": [],
      "stateMutability": "nonpayable",
      "type": "function"
    },
    {
      "inputs": [
        {
          "internalType": "address",
          "name": "from",
          "type": "address"
        },
        {
          "internalType": "address",
          "name": "to",
          "type": "address"
        },
        {
          "internalType": "uint256",
          "name": "tokenId",
          "type": "uint256"
        },
        {
          "internalType": "bytes",
          "name": "_data",
          "type": "bytes"
        }
      ],
      "name": "safeTransferFrom",
      "outputs": [],
      "stateMutability": "nonpayable",
      "type": "function"
    },
    {
      "inputs": [
        {
          "internalType": "address",
          "name": "operator",
          "type": "address"
        },
        {
          "internalType": "bool",
          "name": "approved",
          "type": "bool"
        }
      ],
      "name": "setApprovalForAll",
      "outputs": [],
      "stateMutability": "nonpayable",
      "type": "function"
    },
    {
      "inputs": [
        {
          "internalType": "bytes4",
          "name": "interfaceId",
          "type": "bytes4"
        }
      ],
      "name": "supportsInterface",
      "outputs": [
        {
          "internalType": "bool",
          "name": "",
          "type": "bool"
        }
      ],
      "stateMutability": "view",
      "type": "function"
    },
    {
      "inputs": [],
      "name": "symbol",
      "outputs": [
        {
          "internalType": "string",
          "name": "",
          "type": "string"
        }
      ],
      "stateMutability": "view",
      "type": "function"
    },
    {
      "inputs": [],
      "name": "tokenCount",
      "outputs": [
        {
          "internalType": "uint256",
          "name": "",
          "type": "uint256"
        }
      ],
      "stateMutability": "view",
      "type": "function"
    },
    {
      "inputs": [
        {
          "internalType": "uint256",
          "name": "tokenId",
          "type": "uint256"
        }
      ],
      "name": "tokenURI",
      "outputs": [
        {
          "internalType": "string",
          "name": "",
          "type": "string"
        }
      ],
      "stateMutability": "view",
      "type": "function"
    },
    {
      "inputs": [
        {
          "internalType": "address",
          "name": "from",
          "type": "address"
        },
        {
          "internalType": "address",
          "name": "to",
          "type": "address"
        },
        {
          "internalType": "uint256",
          "name": "tokenId",
          "type": "uint256"
        }
      ],
      "name": "transferFrom",
      "outputs": [],
      "stateMutability": "nonpayable",
      "type": "function"
    }
  ],
  "bytecode": "0x60806040523480156200001157600080fd5b506040518060400160405280600781526020017f657069634e4654000000000000000000000000000000000000000000000000008152506040518060400160405280600481526020017f4550494300000000000000000000000000000000000000000000000000000000815250816000908051906020019062000096929190620001cf565b508060019080519060200190620000af929190620001cf565b505050620000fd6040518060400160405280601181526020017f636f6e7472616374206465706c6f7965640000000000000000000000000000008152506200010360201b62000b5d1760201c565b620003ac565b620001a3816040516024016200011a9190620002c0565b6040516020818303038152906040527f41304fac000000000000000000000000000000000000000000000000000000007bffffffffffffffffffffffffffffffffffffffffffffffffffffffff19166020820180517bffffffffffffffffffffffffffffffffffffffffffffffffffffffff8381831617835250505050620001a660201b60201c565b50565b60008151905060006a636f6e736f6c652e6c6f679050602083016000808483855afa5050505050565b828054620001dd9062000336565b90600052602060002090601f0160209004810192826200020157600085556200024d565b82601f106200021c57805160ff19168380011785556200024d565b828001600101855582156200024d579182015b828111156200024c5782518255916020019190600101906200022f565b5b5090506200025c919062000260565b5090565b5b808211156200027b57600081600090555060010162000261565b5090565b60006200028c82620002e4565b620002988185620002ef565b9350620002aa81856020860162000300565b620002b5816200039b565b840191505092915050565b60006020820190508181036000830152620002dc81846200027f565b905092915050565b600081519050919050565b600082825260208201905092915050565b60005b838110156200032057808201518184015260208101905062000303565b8381111562000330576000848401525b50505050565b600060028204905060018216806200034f57607f821691505b602082108114156200036657620003656200036c565b5b50919050565b7f4e487b7100000000000000000000000000000000000000000000000000000000600052602260045260246000fd5b6000601f19601f8301169050919050565b612cd180620003bc6000396000f3fe608060405234801561001057600080fd5b50600436106100f55760003560e01c806370a0823111610097578063b88d4fde11610066578063b88d4fde14610284578063c87b56dd146102a0578063d85d3d27146102d0578063e985e9c514610300576100f5565b806370a08231146101fc57806395d89b411461022c5780639f181b5e1461024a578063a22cb46514610268576100f5565b8063095ea7b3116100d3578063095ea7b31461017857806323b872dd1461019457806342842e0e146101b05780636352211e146101cc576100f5565b806301ffc9a7146100fa57806306fdde031461012a578063081812fc14610148575b600080fd5b610114600480360381019061010f9190611d3d565b610330565b6040516101219190612184565b60405180910390f35b610132610412565b60405161013f919061219f565b60405180910390f35b610162600480360381019061015d9190611dd0565b6104a4565b60405161016f919061211d565b60405180910390f35b610192600480360381019061018d9190611d01565b610529565b005b6101ae60048036038101906101a99190611bfb565b610641565b005b6101ca60048036038101906101c59190611bfb565b6106a1565b005b6101e660048036038101906101e19190611dd0565b6106c1565b6040516101f3919061211d565b60405180910390f35b61021660048036038101906102119190611b96565b610773565b60405161022391906123c1565b60405180910390f35b61023461082b565b604051610241919061219f565b60405180910390f35b6102526108bd565b60405161025f91906123c1565b60405180910390f35b610282600480360381019061027d9190611cc5565b6108c3565b005b61029e60048036038101906102999190611c4a565b6108d9565b005b6102ba60048036038101906102b59190611dd0565b61093b565b6040516102c7919061219f565b60405180910390f35b6102ea60048036038101906102e59190611d8f565b610a8d565b6040516102f791906123c1565b60405180910390f35b61031a60048036038101906103159190611bbf565b610ac9565b6040516103279190612184565b60405180910390f35b60007f80ac58cd000000000000000000000000000000000000000000000000000000007bffffffffffffffffffffffffffffffffffffffffffffffffffffffff1916827bffffffffffffffffffffffffffffffffffffffffffffffffffffffff191614806103fb57507f5b5e139f000000000000000000000000000000000000000000000000000000007bffffffffffffffffffffffffffffffffffffffffffffffffffffffff1916827bffffffffffffffffffffffffffffffffffffffffffffffffffffffff1916145b8061040b575061040a82610bf6565b5b9050919050565b60606000805461042190612617565b80601f016020809104026020016040519081016040528092919081815260200182805461044d90612617565b801561049a5780601f1061046f5761010080835404028352916020019161049a565b820191906000526020600020905b81548152906001019060200180831161047d57829003601f168201915b5050505050905090565b60006104af82610c60565b6104ee576040517f08c379a00000000000000000000000000000000000000000000000000000000081526004016104e590612341565b60405180910390fd5b6004600083815260200190815260200160002060009054906101000a900473ffffffffffffffffffffffffffffffffffffffff169050919050565b6000610534826106c1565b90508073ffffffffffffffffffffffffffffffffffffffff168373ffffffffffffffffffffffffffffffffffffffff1614156105a5576040517f08c379a000000000000000000000000000000000000000000000000000000000815260040161059c90612381565b60405180910390fd5b8073ffffffffffffffffffffffffffffffffffffffff166105c4610ccc565b73ffffffffffffffffffffffffffffffffffffffff1614806105f357506105f2816105ed610ccc565b610ac9565b5b610632576040517f08c379a000000000000000000000000000000000000000000000000000000000815260040161062990612281565b60405180910390fd5b61063c8383610cd4565b505050565b61065261064c610ccc565b82610d8d565b610691576040517f08c379a0000000000000000000000000000000000000000000000000000000008152600401610688906123a1565b60405180910390fd5b61069c838383610e6b565b505050565b6106bc838383604051806020016040528060008152506108d9565b505050565b6000806002600084815260200190815260200160002060009054906101000a900473ffffffffffffffffffffffffffffffffffffffff169050600073ffffffffffffffffffffffffffffffffffffffff168173ffffffffffffffffffffffffffffffffffffffff16141561076a576040517f08c379a0000000000000000000000000000000000000000000000000000000008152600401610761906122c1565b60405180910390fd5b80915050919050565b60008073ffffffffffffffffffffffffffffffffffffffff168273ffffffffffffffffffffffffffffffffffffffff1614156107e4576040517f08c379a00000000000000000000000000000000000000000000000000000000081526004016107db906122a1565b60405180910390fd5b600360008373ffffffffffffffffffffffffffffffffffffffff1673ffffffffffffffffffffffffffffffffffffffff168152602001908152602001600020549050919050565b60606001805461083a90612617565b80601f016020809104026020016040519081016040528092919081815260200182805461086690612617565b80156108b35780601f10610888576101008083540402835291602001916108b3565b820191906000526020600020905b81548152906001019060200180831161089657829003601f168201915b5050505050905090565b60075481565b6108d56108ce610ccc565b83836110d2565b5050565b6108ea6108e4610ccc565b83610d8d565b610929576040517f08c379a0000000000000000000000000000000000000000000000000000000008152600401610920906123a1565b60405180910390fd5b6109358484848461123f565b50505050565b606061094682610c60565b610985576040517f08c379a000000000000000000000000000000000000000000000000000000000815260040161097c90612321565b60405180910390fd5b60006006600084815260200190815260200160002080546109a590612617565b80601f01602080910402602001604051908101604052809291908181526020018280546109d190612617565b8015610a1e5780601f106109f357610100808354040283529160200191610a1e565b820191906000526020600020905b815481529060010190602001808311610a0157829003601f168201915b505050505090506000610a2f61129b565b9050600081511415610a45578192505050610a88565b600082511115610a7a578082604051602001610a629291906120f9565b60405160208183030381529060405292505050610a88565b610a83846112b2565b925050505b919050565b600060076000815480929190610aa29061267a565b9190505550610ab333600754611359565b610abf60075483611377565b6007549050919050565b6000600560008473ffffffffffffffffffffffffffffffffffffffff1673ffffffffffffffffffffffffffffffffffffffff16815260200190815260200160002060008373ffffffffffffffffffffffffffffffffffffffff1673ffffffffffffffffffffffffffffffffffffffff16815260200190815260200160002060009054906101000a900460ff16905092915050565b610bf381604051602401610b71919061219f565b6040516020818303038152906040527f41304fac000000000000000000000000000000000000000000000000000000007bffffffffffffffffffffffffffffffffffffffffffffffffffffffff19166020820180517bffffffffffffffffffffffffffffffffffffffffffffffffffffffff83818316178352505050506113eb565b50565b60007f01ffc9a7000000000000000000000000000000000000000000000000000000007bffffffffffffffffffffffffffffffffffffffffffffffffffffffff1916827bffffffffffffffffffffffffffffffffffffffffffffffffffffffff1916149050919050565b60008073ffffffffffffffffffffffffffffffffffffffff166002600084815260200190815260200160002060009054906101000a900473ffffffffffffffffffffffffffffffffffffffff1673ffffffffffffffffffffffffffffffffffffffff1614159050919050565b600033905090565b816004600083815260200190815260200160002060006101000a81548173ffffffffffffffffffffffffffffffffffffffff021916908373ffffffffffffffffffffffffffffffffffffffff160217905550808273ffffffffffffffffffffffffffffffffffffffff16610d47836106c1565b73ffffffffffffffffffffffffffffffffffffffff167f8c5be1e5ebec7d5bd14f71427d1e84f3dd0314c0f7b2291e5b200ac8c7c3b92560405160405180910390a45050565b6000610d9882610c60565b610dd7576040517f08c379a0000000000000000000000000000000000000000000000000000000008152600401610dce90612261565b60405180910390fd5b6000610de2836106c1565b90508073ffffffffffffffffffffffffffffffffffffffff168473ffffffffffffffffffffffffffffffffffffffff161480610e5157508373ffffffffffffffffffffffffffffffffffffffff16610e39846104a4565b73ffffffffffffffffffffffffffffffffffffffff16145b80610e625750610e618185610ac9565b5b91505092915050565b8273ffffffffffffffffffffffffffffffffffffffff16610e8b826106c1565b73ffffffffffffffffffffffffffffffffffffffff1614610ee1576040517f08c379a0000000000000000000000000000000000000000000000000000000008152600401610ed8906121e1565b60405180910390fd5b600073ffffffffffffffffffffffffffffffffffffffff168273ffffffffffffffffffffffffffffffffffffffff161415610f51576040517f08c379a0000000000000000000000000000000000000000000000000000000008152600401610f4890612221565b60405180910390fd5b610f5c838383611414565b610f67600082610cd4565b6001600360008573ffffffffffffffffffffffffffffffffffffffff1673ffffffffffffffffffffffffffffffffffffffff1681526020019081526020016000206000828254610fb7919061252d565b925050819055506001600360008473ffffffffffffffffffffffffffffffffffffffff1673ffffffffffffffffffffffffffffffffffffffff168152602001908152602001600020600082825461100e91906124a6565b92505081905550816002600083815260200190815260200160002060006101000a81548173ffffffffffffffffffffffffffffffffffffffff021916908373ffffffffffffffffffffffffffffffffffffffff160217905550808273ffffffffffffffffffffffffffffffffffffffff168473ffffffffffffffffffffffffffffffffffffffff167fddf252ad1be2c89b69c2b068fc378daa952ba7f163c4a11628f55a4df523b3ef60405160405180910390a46110cd838383611419565b505050565b8173ffffffffffffffffffffffffffffffffffffffff168373ffffffffffffffffffffffffffffffffffffffff161415611141576040517f08c379a000000000000000000000000000000000000000000000000000000000815260040161113890612241565b60405180910390fd5b80600560008573ffffffffffffffffffffffffffffffffffffffff1673ffffffffffffffffffffffffffffffffffffffff16815260200190815260200160002060008473ffffffffffffffffffffffffffffffffffffffff1673ffffffffffffffffffffffffffffffffffffffff16815260200190815260200160002060006101000a81548160ff0219169083151502179055508173ffffffffffffffffffffffffffffffffffffffff168373ffffffffffffffffffffffffffffffffffffffff167f17307eab39ab6107e8899845ad3d59bd9653f200f220920489ca2b5937696c31836040516112329190612184565b60405180910390a3505050565b61124a848484610e6b565b6112568484848461141e565b611295576040517f08c379a000000000000000000000000000000000000000000000000000000000815260040161128c906121c1565b60405180910390fd5b50505050565b606060405180602001604052806000815250905090565b60606112bd82610c60565b6112fc576040517f08c379a00000000000000000000000000000000000000000000000000000000081526004016112f390612361565b60405180910390fd5b600061130661129b565b905060008151116113265760405180602001604052806000815250611351565b80611330846115b5565b6040516020016113419291906120f9565b6040516020818303038152906040525b915050919050565b611373828260405180602001604052806000815250611762565b5050565b61138082610c60565b6113bf576040517f08c379a00000000000000000000000000000000000000000000000000000000081526004016113b6906122e1565b60405180910390fd5b806006600084815260200190815260200160002090805190602001906113e69291906119ba565b505050565b60008151905060006a636f6e736f6c652e6c6f679050602083016000808483855afa5050505050565b505050565b505050565b600061143f8473ffffffffffffffffffffffffffffffffffffffff166117bd565b156115a8578373ffffffffffffffffffffffffffffffffffffffff1663150b7a02611468610ccc565b8786866040518563ffffffff1660e01b815260040161148a9493929190612138565b602060405180830381600087803b1580156114a457600080fd5b505af19250505080156114d557506040513d601f19601f820116820180604052508101906114d29190611d66565b60015b611558573d8060008114611505576040519150601f19603f3d011682016040523d82523d6000602084013e61150a565b606091505b50600081511415611550576040517f08c379a0000000000000000000000000000000000000000000000000000000008152600401611547906121c1565b60405180910390fd5b805181602001fd5b63150b7a0260e01b7bffffffffffffffffffffffffffffffffffffffffffffffffffffffff1916817bffffffffffffffffffffffffffffffffffffffffffffffffffffffff1916149150506115ad565b600190505b949350505050565b606060008214156115fd576040518060400160405280600181526020017f3000000000000000000000000000000000000000000000000000000000000000815250905061175d565b600082905060005b6000821461162f5780806116189061267a565b915050600a8261162891906124fc565b9150611605565b60008167ffffffffffffffff811115611671577f4e487b7100000000000000000000000000000000000000000000000000000000600052604160045260246000fd5b6040519080825280601f01601f1916602001820160405280156116a35781602001600182028036833780820191505090505b5090505b60008514611756576001826116bc919061252d565b9150600a856116cb91906126c3565b60306116d791906124a6565b60f81b818381518110611713577f4e487b7100000000000000000000000000000000000000000000000000000000600052603260045260246000fd5b60200101907effffffffffffffffffffffffffffffffffffffffffffffffffffffffffffff1916908160001a905350600a8561174f91906124fc565b94506116a7565b8093505050505b919050565b61176c83836117e0565b611779600084848461141e565b6117b8576040517f08c379a00000000000000000000000000000000000000000000000000000000081526004016117af906121c1565b60405180910390fd5b505050565b6000808273ffffffffffffffffffffffffffffffffffffffff163b119050919050565b600073ffffffffffffffffffffffffffffffffffffffff168273ffffffffffffffffffffffffffffffffffffffff161415611850576040517f08c379a000000000000000000000000000000000000000000000000000000000815260040161184790612301565b60405180910390fd5b61185981610c60565b15611899576040517f08c379a000000000000000000000000000000000000000000000000000000000815260040161189090612201565b60405180910390fd5b6118a560008383611414565b6001600360008473ffffffffffffffffffffffffffffffffffffffff1673ffffffffffffffffffffffffffffffffffffffff16815260200190815260200160002060008282546118f591906124a6565b92505081905550816002600083815260200190815260200160002060006101000a81548173ffffffffffffffffffffffffffffffffffffffff021916908373ffffffffffffffffffffffffffffffffffffffff160217905550808273ffffffffffffffffffffffffffffffffffffffff16600073ffffffffffffffffffffffffffffffffffffffff167fddf252ad1be2c89b69c2b068fc378daa952ba7f163c4a11628f55a4df523b3ef60405160405180910390a46119b660008383611419565b5050565b8280546119c690612617565b90600052602060002090601f0160209004810192826119e85760008555611a2f565b82601f10611a0157805160ff1916838001178555611a2f565b82800160010185558215611a2f579182015b82811115611a2e578251825591602001919060010190611a13565b5b509050611a3c9190611a40565b5090565b5b80821115611a59576000816000905550600101611a41565b5090565b6000611a70611a6b84612401565b6123dc565b905082815260208101848484011115611a8857600080fd5b611a938482856125d5565b509392505050565b6000611aae611aa984612432565b6123dc565b905082815260208101848484011115611ac657600080fd5b611ad18482856125d5565b509392505050565b600081359050611ae881612c3f565b92915050565b600081359050611afd81612c56565b92915050565b600081359050611b1281612c6d565b92915050565b600081519050611b2781612c6d565b92915050565b600082601f830112611b3e57600080fd5b8135611b4e848260208601611a5d565b91505092915050565b600082601f830112611b6857600080fd5b8135611b78848260208601611a9b565b91505092915050565b600081359050611b9081612c84565b92915050565b600060208284031215611ba857600080fd5b6000611bb684828501611ad9565b91505092915050565b60008060408385031215611bd257600080fd5b6000611be085828601611ad9565b9250506020611bf185828601611ad9565b9150509250929050565b600080600060608486031215611c1057600080fd5b6000611c1e86828701611ad9565b9350506020611c2f86828701611ad9565b9250506040611c4086828701611b81565b9150509250925092565b60008060008060808587031215611c6057600080fd5b6000611c6e87828801611ad9565b9450506020611c7f87828801611ad9565b9350506040611c9087828801611b81565b925050606085013567ffffffffffffffff811115611cad57600080fd5b611cb987828801611b2d565b91505092959194509250565b60008060408385031215611cd857600080fd5b6000611ce685828601611ad9565b9250506020611cf785828601611aee565b9150509250929050565b60008060408385031215611d1457600080fd5b6000611d2285828601611ad9565b9250506020611d3385828601611b81565b9150509250929050565b600060208284031215611d4f57600080fd5b6000611d5d84828501611b03565b91505092915050565b600060208284031215611d7857600080fd5b6000611d8684828501611b18565b91505092915050565b600060208284031215611da157600080fd5b600082013567ffffffffffffffff811115611dbb57600080fd5b611dc784828501611b57565b91505092915050565b600060208284031215611de257600080fd5b6000611df084828501611b81565b91505092915050565b611e0281612561565b82525050565b611e1181612573565b82525050565b6000611e2282612463565b611e2c8185612479565b9350611e3c8185602086016125e4565b611e45816127b0565b840191505092915050565b6000611e5b8261246e565b611e65818561248a565b9350611e758185602086016125e4565b611e7e816127b0565b840191505092915050565b6000611e948261246e565b611e9e818561249b565b9350611eae8185602086016125e4565b80840191505092915050565b6000611ec760328361248a565b9150611ed2826127c1565b604082019050919050565b6000611eea60258361248a565b9150611ef582612810565b604082019050919050565b6000611f0d601c8361248a565b9150611f188261285f565b602082019050919050565b6000611f3060248361248a565b9150611f3b82612888565b604082019050919050565b6000611f5360198361248a565b9150611f5e826128d7565b602082019050919050565b6000611f76602c8361248a565b9150611f8182612900565b604082019050919050565b6000611f9960388361248a565b9150611fa48261294f565b604082019050919050565b6000611fbc602a8361248a565b9150611fc78261299e565b604082019050919050565b6000611fdf60298361248a565b9150611fea826129ed565b604082019050919050565b6000612002602e8361248a565b915061200d82612a3c565b604082019050919050565b600061202560208361248a565b915061203082612a8b565b602082019050919050565b600061204860318361248a565b915061205382612ab4565b604082019050919050565b600061206b602c8361248a565b915061207682612b03565b604082019050919050565b600061208e602f8361248a565b915061209982612b52565b604082019050919050565b60006120b160218361248a565b91506120bc82612ba1565b604082019050919050565b60006120d460318361248a565b91506120df82612bf0565b604082019050919050565b6120f3816125cb565b82525050565b60006121058285611e89565b91506121118284611e89565b91508190509392505050565b60006020820190506121326000830184611df9565b92915050565b600060808201905061214d6000830187611df9565b61215a6020830186611df9565b61216760408301856120ea565b81810360608301526121798184611e17565b905095945050505050565b60006020820190506121996000830184611e08565b92915050565b600060208201905081810360008301526121b98184611e50565b905092915050565b600060208201905081810360008301526121da81611eba565b9050919050565b600060208201905081810360008301526121fa81611edd565b9050919050565b6000602082019050818103600083015261221a81611f00565b9050919050565b6000602082019050818103600083015261223a81611f23565b9050919050565b6000602082019050818103600083015261225a81611f46565b9050919050565b6000602082019050818103600083015261227a81611f69565b9050919050565b6000602082019050818103600083015261229a81611f8c565b9050919050565b600060208201905081810360008301526122ba81611faf565b9050919050565b600060208201905081810360008301526122da81611fd2565b9050919050565b600060208201905081810360008301526122fa81611ff5565b9050919050565b6000602082019050818103600083015261231a81612018565b9050919050565b6000602082019050818103600083015261233a8161203b565b9050919050565b6000602082019050818103600083015261235a8161205e565b9050919050565b6000602082019050818103600083015261237a81612081565b9050919050565b6000602082019050818103600083015261239a816120a4565b9050919050565b600060208201905081810360008301526123ba816120c7565b9050919050565b60006020820190506123d660008301846120ea565b92915050565b60006123e66123f7565b90506123f28282612649565b919050565b6000604051905090565b600067ffffffffffffffff82111561241c5761241b612781565b5b612425826127b0565b9050602081019050919050565b600067ffffffffffffffff82111561244d5761244c612781565b5b612456826127b0565b9050602081019050919050565b600081519050919050565b600081519050919050565b600082825260208201905092915050565b600082825260208201905092915050565b600081905092915050565b60006124b1826125cb565b91506124bc836125cb565b9250827fffffffffffffffffffffffffffffffffffffffffffffffffffffffffffffffff038211156124f1576124f06126f4565b5b828201905092915050565b6000612507826125cb565b9150612512836125cb565b92508261252257612521612723565b5b828204905092915050565b6000612538826125cb565b9150612543836125cb565b925082821015612556576125556126f4565b5b828203905092915050565b600061256c826125ab565b9050919050565b60008115159050919050565b60007fffffffff0000000000000000000000000000000000000000000000000000000082169050919050565b600073ffffffffffffffffffffffffffffffffffffffff82169050919050565b6000819050919050565b82818337600083830152505050565b60005b838110156126025780820151818401526020810190506125e7565b83811115612611576000848401525b50505050565b6000600282049050600182168061262f57607f821691505b6020821081141561264357612642612752565b5b50919050565b612652826127b0565b810181811067ffffffffffffffff8211171561267157612670612781565b5b80604052505050565b6000612685826125cb565b91507fffffffffffffffffffffffffffffffffffffffffffffffffffffffffffffffff8214156126b8576126b76126f4565b5b600182019050919050565b60006126ce826125cb565b91506126d9836125cb565b9250826126e9576126e8612723565b5b828206905092915050565b7f4e487b7100000000000000000000000000000000000000000000000000000000600052601160045260246000fd5b7f4e487b7100000000000000000000000000000000000000000000000000000000600052601260045260246000fd5b7f4e487b7100000000000000000000000000000000000000000000000000000000600052602260045260246000fd5b7f4e487b7100000000000000000000000000000000000000000000000000000000600052604160045260246000fd5b6000601f19601f8301169050919050565b7f4552433732313a207472616e7366657220746f206e6f6e20455243373231526560008201527f63656976657220696d706c656d656e7465720000000000000000000000000000602082015250565b7f4552433732313a207472616e736665722066726f6d20696e636f72726563742060008201527f6f776e6572000000000000000000000000000000000000000000000000000000602082015250565b7f4552433732313a20746f6b656e20616c7265616479206d696e74656400000000600082015250565b7f4552433732313a207472616e7366657220746f20746865207a65726f2061646460008201527f7265737300000000000000000000000000000000000000000000000000000000602082015250565b7f4552433732313a20617070726f766520746f2063616c6c657200000000000000600082015250565b7f4552433732313a206f70657261746f7220717565727920666f72206e6f6e657860008201527f697374656e7420746f6b656e0000000000000000000000000000000000000000602082015250565b7f4552433732313a20617070726f76652063616c6c6572206973206e6f74206f7760008201527f6e6572206e6f7220617070726f76656420666f7220616c6c0000000000000000602082015250565b7f4552433732313a2062616c616e636520717565727920666f7220746865207a6560008201527f726f206164647265737300000000000000000000000000000000000000000000602082015250565b7f4552433732313a206f776e657220717565727920666f72206e6f6e657869737460008201527f656e7420746f6b656e0000000000000000000000000000000000000000000000602082015250565b7f45524337323155524953746f726167653a2055524920736574206f66206e6f6e60008201527f6578697374656e7420746f6b656e000000000000000000000000000000000000602082015250565b7f4552433732313a206d696e7420746f20746865207a65726f2061646472657373600082015250565b7f45524337323155524953746f726167653a2055524920717565727920666f722060008201527f6e6f6e6578697374656e7420746f6b656e000000000000000000000000000000602082015250565b7f4552433732313a20617070726f76656420717565727920666f72206e6f6e657860008201527f697374656e7420746f6b656e0000000000000000000000000000000000000000602082015250565b7f4552433732314d657461646174613a2055524920717565727920666f72206e6f60008201527f6e6578697374656e7420746f6b656e0000000000000000000000000000000000602082015250565b7f4552433732313a20617070726f76616c20746f2063757272656e74206f776e6560008201527f7200000000000000000000000000000000000000000000000000000000000000602082015250565b7f4552433732313a207472616e736665722063616c6c6572206973206e6f74206f60008201527f776e6572206e6f7220617070726f766564000000000000000000000000000000602082015250565b612c4881612561565b8114612c5357600080fd5b50565b612c5f81612573565b8114612c6a57600080fd5b50565b612c768161257f565b8114612c8157600080fd5b50565b612c8d816125cb565b8114612c9857600080fd5b5056fea26469706673582212201ec5c737deeec114b6bb88ba7643f40f459fd790f2b2a359c2bca850dbbe610264736f6c63430008040033",
  "linkReferences": {},
  "deployedLinkReferences": {}
}